{
  "contractName": "AidLedger",
  "abi": [
    {
      "constant": true,
      "inputs": [],
      "name": "reliefGoodCount",
      "outputs": [
        {
          "name": "",
          "type": "uint256"
        }
      ],
      "payable": false,
      "stateMutability": "view",
      "type": "function",
      "signature": "0x9394dbce"
    },
    {
      "constant": true,
      "inputs": [
        {
          "name": "",
          "type": "uint256"
        }
      ],
      "name": "reliefGoods",
      "outputs": [
        {
          "name": "id",
          "type": "uint256"
        },
        {
          "name": "donor",
          "type": "address"
        },
        {
          "name": "description",
          "type": "string"
        },
        {
          "name": "status",
          "type": "string"
        },
        {
          "name": "recipient",
          "type": "string"
        }
      ],
      "payable": false,
      "stateMutability": "view",
      "type": "function",
      "signature": "0xca83b51a"
    },
    {
      "inputs": [],
      "payable": false,
      "stateMutability": "nonpayable",
      "type": "constructor",
      "signature": "constructor"
    },
    {
      "anonymous": false,
      "inputs": [
        {
          "indexed": false,
          "name": "id",
          "type": "uint256"
        },
        {
          "indexed": false,
          "name": "donor",
          "type": "address"
        },
        {
          "indexed": false,
          "name": "description",
          "type": "string"
        },
        {
          "indexed": false,
          "name": "status",
          "type": "string"
        },
        {
          "indexed": false,
          "name": "recipient",
          "type": "string"
        }
      ],
      "name": "ReliefGoodCreated",
      "type": "event",
      "signature": "0x2c8f91664d83a63e7cb54609c004fad9fe341544ad6a474c781348d6f91778c7"
    },
    {
      "constant": false,
      "inputs": [
        {
          "name": "_donor",
          "type": "address"
        },
        {
          "name": "_description",
          "type": "string"
        },
        {
          "name": "_status",
          "type": "string"
        },
        {
          "name": "_recipient",
          "type": "string"
        }
      ],
      "name": "createReliefGood",
      "outputs": [],
      "payable": false,
      "stateMutability": "nonpayable",
      "type": "function",
      "signature": "0xdad46037"
    },
    {
      "constant": false,
      "inputs": [
        {
          "name": "_id",
          "type": "uint256"
        },
        {
          "name": "_status",
          "type": "string"
        }
      ],
      "name": "updateReliefGoodStatus",
      "outputs": [],
      "payable": false,
      "stateMutability": "nonpayable",
      "type": "function",
      "signature": "0x463a3e1a"
    },
    {
      "constant": true,
      "inputs": [
        {
          "name": "_id",
          "type": "uint256"
        }
      ],
      "name": "getReliefGood",
      "outputs": [
        {
          "name": "",
          "type": "uint256"
        },
        {
          "name": "",
          "type": "address"
        },
        {
          "name": "",
          "type": "string"
        },
        {
          "name": "",
          "type": "string"
        },
        {
          "name": "",
          "type": "string"
        }
      ],
      "payable": false,
      "stateMutability": "view",
      "type": "function",
      "signature": "0x98aa4e3a"
    }
  ],
  "bytecode": "0x6080604052600080553480156200001557600080fd5b50620000d360016040805190810160405280600681526020017f486f74646f6700000000000000000000000000000000000000000000000000008152506040805190810160405280600a81526020017f496e207472616e736974000000000000000000000000000000000000000000008152506040805190810160405280600881526020017f436c6172656e636500000000000000000000000000000000000000000000000081525062000253640100000000026401000000009004565b6200019060026040805190810160405280600381526020017f45676700000000000000000000000000000000000000000000000000000000008152506040805190810160405280600a81526020017f496e207472616e736974000000000000000000000000000000000000000000008152506040805190810160405280600381526020017f436564000000000000000000000000000000000000000000000000000000000081525062000253640100000000026401000000009004565b6200024d60036040805190810160405280600681526020017f486f74646f6700000000000000000000000000000000000000000000000000008152506040805190810160405280600981526020017f44656c69766572656400000000000000000000000000000000000000000000008152506040805190810160405280600481526020017f4d6967730000000000000000000000000000000000000000000000000000000081525062000253640100000000026401000000009004565b62000555565b6000805460019081018083556040805160a081018252828152600160a060020a0389811660208084019182528385018b8152606085018b9052608085018a9052958852868152939096208251815595519486018054600160a060020a031916959091169490941790935590518051929392620002d69260028501920190620004b0565b5060608201518051620002f4916003840191602090910190620004b0565b506080820151805162000312916004840191602090910190620004b0565b509050507f2c8f91664d83a63e7cb54609c004fad9fe341544ad6a474c781348d6f91778c7600054858585856040518086815260200185600160a060020a0316600160a060020a03168152602001806020018060200180602001848103845287818151815260200191508051906020019080838360005b83811015620003a357818101518382015260200162000389565b50505050905090810190601f168015620003d15780820380516001836020036101000a031916815260200191505b50848103835286518152865160209182019188019080838360005b8381101562000406578181015183820152602001620003ec565b50505050905090810190601f168015620004345780820380516001836020036101000a031916815260200191505b50848103825285518152855160209182019187019080838360005b83811015620004695781810151838201526020016200044f565b50505050905090810190601f168015620004975780820380516001836020036101000a031916815260200191505b509850505050505050505060405180910390a150505050565b828054600181600116156101000203166002900490600052602060002090601f016020900481019282601f10620004f357805160ff191683800117855562000523565b8280016001018555821562000523579182015b828111156200052357825182559160200191906001019062000506565b506200053192915062000535565b5090565b6200055291905b808211156200053157600081556001016200053c565b90565b610c6180620005656000396000f3fe60806040526004361061006c5763ffffffff7c0100000000000000000000000000000000000000000000000000000000600035041663463a3e1a81146100715780639394dbce1461012d57806398aa4e3a14610154578063ca83b51a146102e2578063dad460371461030c575b600080fd5b34801561007d57600080fd5b5061012b6004803603604081101561009457600080fd5b813591908101906040810160208201356401000000008111156100b657600080fd5b8201836020820111156100c857600080fd5b803590602001918460018302840111640100000000831117156100ea57600080fd5b91908080601f0160208091040260200160405190810160405280939291908181526020018383808284376000920191909152509295506104dd945050505050565b005b34801561013957600080fd5b50610142610507565b60408051918252519081900360200190f35b34801561016057600080fd5b5061017e6004803603602081101561017757600080fd5b503561050d565b6040518086815260200185600160a060020a0316600160a060020a03168152602001806020018060200180602001848103845287818151815260200191508051906020019080838360005b838110156101e15781810151838201526020016101c9565b50505050905090810190601f16801561020e5780820380516001836020036101000a031916815260200191505b50848103835286518152865160209182019188019080838360005b83811015610241578181015183820152602001610229565b50505050905090810190601f16801561026e5780820380516001836020036101000a031916815260200191505b50848103825285518152855160209182019187019080838360005b838110156102a1578181015183820152602001610289565b50505050905090810190601f1680156102ce5780820380516001836020036101000a031916815260200191505b509850505050505050505060405180910390f35b3480156102ee57600080fd5b5061017e6004803603602081101561030557600080fd5b5035610733565b34801561031857600080fd5b5061012b6004803603608081101561032f57600080fd5b600160a060020a03823516919081019060408101602082013564010000000081111561035a57600080fd5b82018360208201111561036c57600080fd5b8035906020019184600183028401116401000000008311171561038e57600080fd5b91908080601f01602080910402602001604051908101604052809392919081815260200183838082843760009201919091525092959493602081019350359150506401000000008111156103e157600080fd5b8201836020820111156103f357600080fd5b8035906020019184600183028401116401000000008311171561041557600080fd5b91908080601f016020809104026020016040519081016040528093929190818152602001838380828437600092019190915250929594936020810193503591505064010000000081111561046857600080fd5b82018360208201111561047a57600080fd5b8035906020019184600183028401116401000000008311171561049c57600080fd5b91908080601f016020809104026020016040519081016040528093929190818152602001838380828437600092019190915250929550610906945050505050565b6000828152600160209081526040909120825161050292600390920191840190610b61565b505050565b60005481565b600080606080606061051d610bdf565b600087815260016020818152604092839020835160a0810185528154815281840154600160a060020a0316818401526002808301805487516101009782161597909702600019011691909104601f8101859004850286018501875280865291959294928601939091908301828280156105d75780601f106105ac576101008083540402835291602001916105d7565b820191906000526020600020905b8154815290600101906020018083116105ba57829003601f168201915b505050918352505060038201805460408051602060026001851615610100026000190190941693909304601f810184900484028201840190925281815293820193929183018282801561066b5780601f106106405761010080835404028352916020019161066b565b820191906000526020600020905b81548152906001019060200180831161064e57829003601f168201915b505050918352505060048201805460408051602060026001851615610100026000190190941693909304601f81018490048402820184019092528181529382019392918301828280156106ff5780601f106106d4576101008083540402835291602001916106ff565b820191906000526020600020905b8154815290600101906020018083116106e257829003601f168201915b5050509190925250508151602083015160408401516060850151608090950151929c919b5099509297509550909350505050565b6001602081815260009283526040928390208054818401546002808401805488516101009882161598909802600019011691909104601f81018690048602870186019097528686529195600160a060020a039091169492938301828280156107dc5780601f106107b1576101008083540402835291602001916107dc565b820191906000526020600020905b8154815290600101906020018083116107bf57829003601f168201915b5050505060038301805460408051602060026001851615610100026000190190941693909304601f810184900484028201840190925281815294959493509083018282801561086c5780601f106108415761010080835404028352916020019161086c565b820191906000526020600020905b81548152906001019060200180831161084f57829003601f168201915b5050505060048301805460408051602060026001851615610100026000190190941693909304601f81018490048402820184019092528181529495949350908301828280156108fc5780601f106108d1576101008083540402835291602001916108fc565b820191906000526020600020905b8154815290600101906020018083116108df57829003601f168201915b5050505050905085565b6000805460019081018083556040805160a081018252828152600160a060020a0389811660208084019182528385018b8152606085018b9052608085018a905295885286815293909620825181559551948601805473ffffffffffffffffffffffffffffffffffffffff19169590911694909417909355905180519293926109949260028501920190610b61565b50606082015180516109b0916003840191602090910190610b61565b50608082015180516109cc916004840191602090910190610b61565b509050507f2c8f91664d83a63e7cb54609c004fad9fe341544ad6a474c781348d6f91778c7600054858585856040518086815260200185600160a060020a0316600160a060020a03168152602001806020018060200180602001848103845287818151815260200191508051906020019080838360005b83811015610a5b578181015183820152602001610a43565b50505050905090810190601f168015610a885780820380516001836020036101000a031916815260200191505b50848103835286518152865160209182019188019080838360005b83811015610abb578181015183820152602001610aa3565b50505050905090810190601f168015610ae85780820380516001836020036101000a031916815260200191505b50848103825285518152855160209182019187019080838360005b83811015610b1b578181015183820152602001610b03565b50505050905090810190601f168015610b485780820380516001836020036101000a031916815260200191505b509850505050505050505060405180910390a150505050565b828054600181600116156101000203166002900490600052602060002090601f016020900481019282601f10610ba257805160ff1916838001178555610bcf565b82800160010185558215610bcf579182015b82811115610bcf578251825591602001919060010190610bb4565b50610bdb929150610c18565b5090565b60a060405190810160405280600081526020016000600160a060020a031681526020016060815260200160608152602001606081525090565b610c3291905b80821115610bdb5760008155600101610c1e565b9056fea165627a7a7230582024e0378da57b901b487d02c55dd58a63302b026dbac1da111edfba581a189d210029",
  "source": "pragma solidity ^0.5.0;\r\n\r\ncontract AidLedger {\r\n  uint256 public reliefGoodCount = 0;\r\n  mapping(uint256 => ReliefGood) public reliefGoods;\r\n\r\n  event ReliefGoodCreated(\r\n    uint256 id,\r\n    address donor,\r\n    string description,\r\n    string status,\r\n    string recipient\r\n  );\r\n\r\n  struct ReliefGood {\r\n    uint256 id;\r\n    address donor;\r\n    string description;\r\n    string status;\r\n    string recipient;\r\n  }\r\n\r\n  constructor() public {\r\n    createReliefGood(0x0000000000000000000000000000000000000001, \"Hotdog\", \"In transit\", \"Clarence\");\r\n    createReliefGood(0x0000000000000000000000000000000000000002, \"Egg\", \"In transit\", \"Ced\");\r\n    createReliefGood(0x0000000000000000000000000000000000000003, \"Hotdog\", \"Delivered\", \"Migs\");\r\n  }\r\n\r\n  function createReliefGood(address _donor, string memory _description, string memory _status, string memory _recipient) public {\r\n    reliefGoodCount++;\r\n    reliefGoods[reliefGoodCount] = ReliefGood(reliefGoodCount, _donor, _description, _status, _recipient);\r\n    emit ReliefGoodCreated(reliefGoodCount, _donor, _description, _status, _recipient);\r\n  }\r\n\r\n  function updateReliefGoodStatus(uint256 _id, string memory _status) public {\r\n    reliefGoods[_id].status = _status;\r\n  }\r\n\r\n  function getReliefGood(uint256 _id) public view returns (uint256, address, string memory, string memory, string memory) {\r\n    ReliefGood memory reliefGood = reliefGoods[_id];\r\n    return (reliefGood.id, reliefGood.donor, reliefGood.description, reliefGood.status, reliefGood.recipient);\r\n  }\r\n}\r\n",
  "sourcePath": "D:/DEV/Projects/aidledger/blockchain/contracts/AidLedger.sol",
  "compiler": {
    "name": "solc",
    "version": "0.5.0+commit.1d4f565a.Emscripten.clang"
  },
  "schemaVersion": "3.0.1",
  "updatedAt": "2024-06-04T03:39:12.916Z",
  "devdoc": {
    "methods": {}
  },
  "userdoc": {
    "methods": {}
  }
}