{
  "contractName": "AidLedger",
  "abi": [
    {
      "constant": true,
      "inputs": [],
      "name": "reliefGoodCount",
      "outputs": [
        {
          "name": "",
          "type": "uint256"
        }
      ],
      "payable": false,
      "stateMutability": "view",
      "type": "function",
      "signature": "0x9394dbce"
    },
    {
      "constant": true,
      "inputs": [
        {
          "name": "",
          "type": "uint256"
        }
      ],
      "name": "reliefGoods",
      "outputs": [
        {
          "name": "id",
          "type": "uint256"
        },
        {
          "name": "donor",
          "type": "string"
        },
        {
          "name": "description",
          "type": "string"
        },
        {
          "name": "location",
          "type": "string"
        },
        {
          "name": "delivered",
          "type": "bool"
        }
      ],
      "payable": false,
      "stateMutability": "view",
      "type": "function",
      "signature": "0xca83b51a"
    },
    {
      "inputs": [],
      "payable": false,
      "stateMutability": "nonpayable",
      "type": "constructor",
      "signature": "constructor"
    },
    {
      "constant": false,
      "inputs": [
        {
          "name": "_donor",
          "type": "string"
        },
        {
          "name": "_description",
          "type": "string"
        },
        {
          "name": "_location",
          "type": "string"
        }
      ],
      "name": "createReliefGood",
      "outputs": [],
      "payable": false,
      "stateMutability": "nonpayable",
      "type": "function",
      "signature": "0xf63fe118"
    },
    {
      "constant": false,
      "inputs": [
        {
          "name": "_id",
          "type": "uint256"
        },
        {
          "name": "_location",
          "type": "string"
        }
      ],
      "name": "updateReliefGoodLocation",
      "outputs": [],
      "payable": false,
      "stateMutability": "nonpayable",
      "type": "function",
      "signature": "0x9ad469ee"
    },
    {
      "constant": false,
      "inputs": [
        {
          "name": "_id",
          "type": "uint256"
        }
      ],
      "name": "markAsDelivered",
      "outputs": [],
      "payable": false,
      "stateMutability": "nonpayable",
      "type": "function",
      "signature": "0x968ee6ed"
    },
    {
      "constant": true,
      "inputs": [
        {
          "name": "_id",
          "type": "uint256"
        }
      ],
      "name": "getReliefGood",
      "outputs": [
        {
          "name": "",
          "type": "uint256"
        },
        {
          "name": "",
          "type": "string"
        },
        {
          "name": "",
          "type": "string"
        },
        {
          "name": "",
          "type": "string"
        },
        {
          "name": "",
          "type": "bool"
        }
      ],
      "payable": false,
      "stateMutability": "view",
      "type": "function",
      "signature": "0x98aa4e3a"
    }
  ],
  "bytecode": "0x60806040526000805534801561001457600080fd5b506100ce6040805190810160405280600a81526020017f7465737420646f6e6f72000000000000000000000000000000000000000000008152506040805190810160405280601081526020017f74657374206465736372697074696f6e000000000000000000000000000000008152506040805190810160405280600d81526020017f74657374206c6f636174696f6e000000000000000000000000000000000000008152506100d3640100000000026401000000009004565b610222565b6000805460019081018083556040805160a08101825282815260208082018981528284018990526060830188905260808301879052938652848152919094208451815591518051929361012e93908501929190910190610187565b506040820151805161014a916002840191602090910190610187565b5060608201518051610166916003840191602090910190610187565b50608091909101516004909101805460ff1916911515919091179055505050565b828054600181600116156101000203166002900490600052602060002090601f016020900481019282601f106101c857805160ff19168380011785556101f5565b828001600101855582156101f5579182015b828111156101f55782518255916020019190600101906101da565b50610201929150610205565b5090565b61021f91905b80821115610201576000815560010161020b565b90565b610a7e806102316000396000f3fe6080604052600436106100775763ffffffff7c01000000000000000000000000000000000000000000000000000000006000350416639394dbce811461007c578063968ee6ed146100a357806398aa4e3a146100cf5780639ad469ee1461024f578063ca83b51a14610309578063f63fe11814610333575b600080fd5b34801561008857600080fd5b506100916104f4565b60408051918252519081900360200190f35b3480156100af57600080fd5b506100cd600480360360208110156100c657600080fd5b50356104fa565b005b3480156100db57600080fd5b506100f9600480360360208110156100f257600080fd5b503561051b565b6040518086815260200180602001806020018060200185151515158152602001848103845288818151815260200191508051906020019080838360005b8381101561014e578181015183820152602001610136565b50505050905090810190601f16801561017b5780820380516001836020036101000a031916815260200191505b50848103835287518152875160209182019189019080838360005b838110156101ae578181015183820152602001610196565b50505050905090810190601f1680156101db5780820380516001836020036101000a031916815260200191505b50848103825286518152865160209182019188019080838360005b8381101561020e5781810151838201526020016101f6565b50505050905090810190601f16801561023b5780820380516001836020036101000a031916815260200191505b509850505050505050505060405180910390f35b34801561025b57600080fd5b506100cd6004803603604081101561027257600080fd5b8135919081019060408101602082013564010000000081111561029457600080fd5b8201836020820111156102a657600080fd5b803590602001918460018302840111640100000000831117156102c857600080fd5b91908080601f016020809104026020016040519081016040528093929190818152602001838380828437600092019190915250929550610708945050505050565b34801561031557600080fd5b506100f96004803603602081101561032c57600080fd5b5035610732565b34801561033f57600080fd5b506100cd6004803603606081101561035657600080fd5b81019060208101813564010000000081111561037157600080fd5b82018360208201111561038357600080fd5b803590602001918460018302840111640100000000831117156103a557600080fd5b91908080601f01602080910402602001604051908101604052809392919081815260200183838082843760009201919091525092959493602081019350359150506401000000008111156103f857600080fd5b82018360208201111561040a57600080fd5b8035906020019184600183028401116401000000008311171561042c57600080fd5b91908080601f016020809104026020016040519081016040528093929190818152602001838380828437600092019190915250929594936020810193503591505064010000000081111561047f57600080fd5b82018360208201111561049157600080fd5b803590602001918460018302840111640100000000831117156104b357600080fd5b91908080601f016020809104026020016040519081016040528093929190818152602001838380828437600092019190915250929550610903945050505050565b60005481565b6000908152600160208190526040909120600401805460ff19169091179055565b600081815260016020818152604080842080546004820154828601805485516002610100998316159990990260001901909116889004601f8101889004880282018801909652858152606097889788978b979495928501946003019360ff90931692918691908301828280156105d25780601f106105a7576101008083540402835291602001916105d2565b820191906000526020600020905b8154815290600101906020018083116105b557829003601f168201915b5050865460408051602060026001851615610100026000190190941693909304601f8101849004840282018401909252818152959950889450925084019050828280156106605780601f1061063557610100808354040283529160200191610660565b820191906000526020600020905b81548152906001019060200180831161064357829003601f168201915b5050855460408051602060026001851615610100026000190190941693909304601f8101849004840282018401909252818152959850879450925084019050828280156106ee5780601f106106c3576101008083540402835291602001916106ee565b820191906000526020600020905b8154815290600101906020018083116106d157829003601f168201915b505050505091509450945094509450945091939590929450565b6000828152600160209081526040909120825161072d926003909201918401906109b7565b505050565b600160208181526000928352604092839020805481840180548651600296821615610100026000190190911695909504601f810185900485028601850190965285855290949193929091908301828280156107ce5780601f106107a3576101008083540402835291602001916107ce565b820191906000526020600020905b8154815290600101906020018083116107b157829003601f168201915b50505060028085018054604080516020601f60001961010060018716150201909416959095049283018590048502810185019091528181529596959450909250908301828280156108605780601f1061083557610100808354040283529160200191610860565b820191906000526020600020905b81548152906001019060200180831161084357829003601f168201915b5050505060038301805460408051602060026001851615610100026000190190941693909304601f81018490048402820184019092528181529495949350908301828280156108f05780601f106108c5576101008083540402835291602001916108f0565b820191906000526020600020905b8154815290600101906020018083116108d357829003601f168201915b5050506004909301549192505060ff1685565b6000805460019081018083556040805160a08101825282815260208082018981528284018990526060830188905260808301879052938652848152919094208451815591518051929361095e939085019291909101906109b7565b506040820151805161097a9160028401916020909101906109b7565b50606082015180516109969160038401916020909101906109b7565b50608091909101516004909101805460ff1916911515919091179055505050565b828054600181600116156101000203166002900490600052602060002090601f016020900481019282601f106109f857805160ff1916838001178555610a25565b82800160010185558215610a25579182015b82811115610a25578251825591602001919060010190610a0a565b50610a31929150610a35565b5090565b610a4f91905b80821115610a315760008155600101610a3b565b9056fea165627a7a723058209130caf8e1a29bb868baf52278fe643f4e86359fa0008c35a5290063742ba79b0029",
  "source": "pragma solidity ^0.5.0;\r\n\r\ncontract AidLedger {\r\n  uint public reliefGoodCount = 0;\r\n  mapping(uint => ReliefGood) public reliefGoods;\r\n\r\n  struct ReliefGood {\r\n    uint id;\r\n    string donor; // change to address instead of string later\r\n    string description;\r\n    string location;\r\n    bool delivered;\r\n  }\r\n\r\n  constructor() public {\r\n    createReliefGood(\"test donor\", \"test description\", \"test location\");\r\n  }\r\n\r\n  // Create a new relief good\r\n  function createReliefGood(string memory _donor, string memory _description, string memory _location) public {\r\n    reliefGoodCount++;\r\n    reliefGoods[reliefGoodCount] = ReliefGood(reliefGoodCount, _donor, _description, _location, false);\r\n  }\r\n\r\n  // Update relief good details\r\n  function updateReliefGoodLocation(uint _id, string memory _location) public {\r\n    reliefGoods[_id].location = _location;\r\n  }\r\n\r\n  // Mark relief good as delivered\r\n  function markAsDelivered(uint _id) public {\r\n    reliefGoods[_id].delivered = true;\r\n  }\r\n\r\n  // Get relief good details\r\n  function getReliefGood(uint _id) public view returns (uint, string memory, string memory, string memory, bool) {\r\n    return (reliefGoods[_id].id, reliefGoods[_id].donor, reliefGoods[_id].description, reliefGoods[_id].location, reliefGoods[_id].delivered);\r\n  }\r\n}",
  "sourcePath": "D:/DEV/Projects/aidledger/blockchain/contracts/AidLedger.sol",
  "compiler": {
    "name": "solc",
    "version": "0.5.0+commit.1d4f565a.Emscripten.clang"
  },
  "schemaVersion": "3.0.1",
  "updatedAt": "2024-05-26T19:05:02.576Z",
  "devdoc": {
    "methods": {}
  },
  "userdoc": {
    "methods": {}
  }
}