{
  "contractName": "AidLedger",
  "abi": [
    {
      "constant": true,
      "inputs": [],
      "name": "reliefGoodCount",
      "outputs": [
        {
          "name": "",
          "type": "uint256"
        }
      ],
      "payable": false,
      "stateMutability": "view",
      "type": "function",
      "signature": "0x9394dbce"
    },
    {
      "constant": true,
      "inputs": [
        {
          "name": "",
          "type": "uint256"
        }
      ],
      "name": "reliefGoods",
      "outputs": [
        {
          "name": "id",
          "type": "uint256"
        },
        {
          "name": "donor",
          "type": "address"
        },
        {
          "name": "typeOfGood",
          "type": "string"
        },
        {
          "name": "weight",
          "type": "string"
        },
        {
          "name": "status",
          "type": "string"
        },
        {
          "name": "recipient",
          "type": "address"
        }
      ],
      "payable": false,
      "stateMutability": "view",
      "type": "function",
      "signature": "0xca83b51a"
    },
    {
      "inputs": [],
      "payable": false,
      "stateMutability": "nonpayable",
      "type": "constructor",
      "signature": "constructor"
    },
    {
      "anonymous": false,
      "inputs": [
        {
          "indexed": false,
          "name": "id",
          "type": "uint256"
        },
        {
          "indexed": false,
          "name": "donor",
          "type": "address"
        },
        {
          "indexed": false,
          "name": "typeOfGood",
          "type": "string"
        },
        {
          "indexed": false,
          "name": "weight",
          "type": "string"
        },
        {
          "indexed": false,
          "name": "status",
          "type": "string"
        },
        {
          "indexed": false,
          "name": "recipient",
          "type": "address"
        }
      ],
      "name": "ReliefGoodCreated",
      "type": "event",
      "signature": "0x935fa8a11fafc25e54d9bccef3f70047eef36ac3803efbd4460b97ae9f5d1d64"
    },
    {
      "constant": false,
      "inputs": [
        {
          "name": "_donor",
          "type": "address"
        },
        {
          "name": "_typeOfGood",
          "type": "string"
        },
        {
          "name": "_weight",
          "type": "string"
        },
        {
          "name": "_status",
          "type": "string"
        },
        {
          "name": "_recipient",
          "type": "address"
        }
      ],
      "name": "createReliefGood",
      "outputs": [],
      "payable": false,
      "stateMutability": "nonpayable",
      "type": "function",
      "signature": "0x884be978"
    },
    {
      "constant": false,
      "inputs": [
        {
          "name": "_id",
          "type": "uint256"
        },
        {
          "name": "_status",
          "type": "string"
        }
      ],
      "name": "updateReliefGoodStatus",
      "outputs": [],
      "payable": false,
      "stateMutability": "nonpayable",
      "type": "function",
      "signature": "0x463a3e1a"
    },
    {
      "constant": true,
      "inputs": [
        {
          "name": "_id",
          "type": "uint256"
        }
      ],
      "name": "getReliefGood",
      "outputs": [
        {
          "name": "",
          "type": "uint256"
        },
        {
          "name": "",
          "type": "address"
        },
        {
          "name": "",
          "type": "string"
        },
        {
          "name": "",
          "type": "string"
        },
        {
          "name": "",
          "type": "string"
        },
        {
          "name": "",
          "type": "address"
        }
      ],
      "payable": false,
      "stateMutability": "view",
      "type": "function",
      "signature": "0x98aa4e3a"
    }
  ],
  "bytecode": "0x6080604052600080553480156200001557600080fd5b50620000d560016040805190810160405280600b81526020017f43616e6e656420666f6f640000000000000000000000000000000000000000008152506040805190810160405280600681526020017f302e35206b6700000000000000000000000000000000000000000000000000008152506040805190810160405280600a81526020017f496e207472616e73697400000000000000000000000000000000000000000000815250600a62000259640100000000026401000000009004565b6200019460026040805190810160405280600781526020017f436c6f74686573000000000000000000000000000000000000000000000000008152506040805190810160405280600481526020017f31206b67000000000000000000000000000000000000000000000000000000008152506040805190810160405280600a81526020017f496e207472616e73697400000000000000000000000000000000000000000000815250600b62000259640100000000026401000000009004565b6200025360036040805190810160405280600781526020017f4e6f6f646c6573000000000000000000000000000000000000000000000000008152506040805190810160405280600781526020017f302e3837206b67000000000000000000000000000000000000000000000000008152506040805190810160405280600981526020017f44656c6976657265640000000000000000000000000000000000000000000000815250600c62000259640100000000026401000000009004565b620005ab565b6000805460019081018083556040805160c081018252828152600160a060020a038a811660208084019182528385018c8152606085018c9052608085018b905289841660a0860152958852868152939096208251815595519486018054600160a060020a031916959091169490941790935590518051929392620002e4926002850192019062000506565b50606082015180516200030291600384019160209091019062000506565b50608082015180516200032091600484019160209091019062000506565b5060a08201518160050160006101000a815481600160a060020a030219169083600160a060020a031602179055509050507f935fa8a11fafc25e54d9bccef3f70047eef36ac3803efbd4460b97ae9f5d1d6460005486868686866040518087815260200186600160a060020a0316600160a060020a0316815260200180602001806020018060200185600160a060020a0316600160a060020a03168152602001848103845288818151815260200191508051906020019080838360005b83811015620003f7578181015183820152602001620003dd565b50505050905090810190601f168015620004255780820380516001836020036101000a031916815260200191505b50848103835287518152875160209182019189019080838360005b838110156200045a57818101518382015260200162000440565b50505050905090810190601f168015620004885780820380516001836020036101000a031916815260200191505b50848103825286518152865160209182019188019080838360005b83811015620004bd578181015183820152602001620004a3565b50505050905090810190601f168015620004eb5780820380516001836020036101000a031916815260200191505b50995050505050505050505060405180910390a15050505050565b828054600181600116156101000203166002900490600052602060002090601f016020900481019282601f106200054957805160ff191683800117855562000579565b8280016001018555821562000579579182015b82811115620005795782518255916020019190600101906200055c565b50620005879291506200058b565b5090565b620005a891905b8082111562000587576000815560010162000592565b90565b610d1080620005bb6000396000f3fe60806040526004361061006c5763ffffffff7c0100000000000000000000000000000000000000000000000000000000600035041663463a3e1a8114610071578063884be9781461012d5780639394dbce1461030957806398aa4e3a14610330578063ca83b51a146104d7575b600080fd5b34801561007d57600080fd5b5061012b6004803603604081101561009457600080fd5b813591908101906040810160208201356401000000008111156100b657600080fd5b8201836020820111156100c857600080fd5b803590602001918460018302840111640100000000831117156100ea57600080fd5b91908080601f016020809104026020016040519081016040528093929190818152602001838380828437600092019190915250929550610501945050505050565b005b34801561013957600080fd5b5061012b600480360360a081101561015057600080fd5b600160a060020a03823516919081019060408101602082013564010000000081111561017b57600080fd5b82018360208201111561018d57600080fd5b803590602001918460018302840111640100000000831117156101af57600080fd5b91908080601f016020809104026020016040519081016040528093929190818152602001838380828437600092019190915250929594936020810193503591505064010000000081111561020257600080fd5b82018360208201111561021457600080fd5b8035906020019184600183028401116401000000008311171561023657600080fd5b91908080601f016020809104026020016040519081016040528093929190818152602001838380828437600092019190915250929594936020810193503591505064010000000081111561028957600080fd5b82018360208201111561029b57600080fd5b803590602001918460018302840111640100000000831117156102bd57600080fd5b91908080601f01602080910402602001604051908101604052809392919081815260200183838082843760009201919091525092955050509035600160a060020a0316915061052b9050565b34801561031557600080fd5b5061031e6107d6565b60408051918252519081900360200190f35b34801561033c57600080fd5b5061035a6004803603602081101561035357600080fd5b50356107dc565b6040518087815260200186600160a060020a0316600160a060020a0316815260200180602001806020018060200185600160a060020a0316600160a060020a03168152602001848103845288818151815260200191508051906020019080838360005b838110156103d55781810151838201526020016103bd565b50505050905090810190601f1680156104025780820380516001836020036101000a031916815260200191505b50848103835287518152875160209182019189019080838360005b8381101561043557818101518382015260200161041d565b50505050905090810190601f1680156104625780820380516001836020036101000a031916815260200191505b50848103825286518152865160209182019188019080838360005b8381101561049557818101518382015260200161047d565b50505050905090810190601f1680156104c25780820380516001836020036101000a031916815260200191505b50995050505050505050505060405180910390f35b3480156104e357600080fd5b5061035a600480360360208110156104fa57600080fd5b5035610a1e565b6000828152600160209081526040909120825161052692600490920191840190610c00565b505050565b6000805460019081018083556040805160c081018252828152600160a060020a038a811660208084019182528385018c8152606085018c9052608085018b905289841660a086015295885286815293909620825181559551948601805473ffffffffffffffffffffffffffffffffffffffff19169590911694909417909355905180519293926105c19260028501920190610c00565b50606082015180516105dd916003840191602090910190610c00565b50608082015180516105f9916004840191602090910190610c00565b5060a08201518160050160006101000a815481600160a060020a030219169083600160a060020a031602179055509050507f935fa8a11fafc25e54d9bccef3f70047eef36ac3803efbd4460b97ae9f5d1d6460005486868686866040518087815260200186600160a060020a0316600160a060020a0316815260200180602001806020018060200185600160a060020a0316600160a060020a03168152602001848103845288818151815260200191508051906020019080838360005b838110156106ce5781810151838201526020016106b6565b50505050905090810190601f1680156106fb5780820380516001836020036101000a031916815260200191505b50848103835287518152875160209182019189019080838360005b8381101561072e578181015183820152602001610716565b50505050905090810190601f16801561075b5780820380516001836020036101000a031916815260200191505b50848103825286518152865160209182019188019080838360005b8381101561078e578181015183820152602001610776565b50505050905090810190601f1680156107bb5780820380516001836020036101000a031916815260200191505b50995050505050505050505060405180910390a15050505050565b60005481565b600080606080606060006107ee610c7e565b600088815260016020818152604092839020835160c0810185528154815281840154600160a060020a0316818401526002808301805487516101009782161597909702600019011691909104601f8101859004850286018501875280865291959294928601939091908301828280156108a85780601f1061087d576101008083540402835291602001916108a8565b820191906000526020600020905b81548152906001019060200180831161088b57829003601f168201915b505050918352505060038201805460408051602060026001851615610100026000190190941693909304601f810184900484028201840190925281815293820193929183018282801561093c5780601f106109115761010080835404028352916020019161093c565b820191906000526020600020905b81548152906001019060200180831161091f57829003601f168201915b505050918352505060048201805460408051602060026001851615610100026000190190941693909304601f81018490048402820184019092528181529382019392918301828280156109d05780601f106109a5576101008083540402835291602001916109d0565b820191906000526020600020905b8154815290600101906020018083116109b357829003601f168201915b505050918352505060059190910154600160a060020a031660209182015281519082015160408301516060840151608085015160a090950151939d929c50909a509850919650945092505050565b6001602081815260009283526040928390208054818401546002808401805488516101009882161598909802600019011691909104601f81018690048602870186019097528686529195600160a060020a03909116949293830182828015610ac75780601f10610a9c57610100808354040283529160200191610ac7565b820191906000526020600020905b815481529060010190602001808311610aaa57829003601f168201915b5050505060038301805460408051602060026001851615610100026000190190941693909304601f8101849004840282018401909252818152949594935090830182828015610b575780601f10610b2c57610100808354040283529160200191610b57565b820191906000526020600020905b815481529060010190602001808311610b3a57829003601f168201915b5050505060048301805460408051602060026001851615610100026000190190941693909304601f8101849004840282018401909252818152949594935090830182828015610be75780601f10610bbc57610100808354040283529160200191610be7565b820191906000526020600020905b815481529060010190602001808311610bca57829003601f168201915b50505060059093015491925050600160a060020a031686565b828054600181600116156101000203166002900490600052602060002090601f016020900481019282601f10610c4157805160ff1916838001178555610c6e565b82800160010185558215610c6e579182015b82811115610c6e578251825591602001919060010190610c53565b50610c7a929150610cc7565b5090565b60c060405190810160405280600081526020016000600160a060020a031681526020016060815260200160608152602001606081526020016000600160a060020a031681525090565b610ce191905b80821115610c7a5760008155600101610ccd565b9056fea165627a7a723058203048488283b33f90fd9243a957954dc1087b7ecd09234a0d869b85ea19d0da5a0029",
  "source": "pragma solidity ^0.5.0;\r\n\r\ncontract AidLedger {\r\n  uint256 public reliefGoodCount = 0;\r\n  mapping(uint256 => ReliefGood) public reliefGoods;\r\n\r\n  event ReliefGoodCreated(\r\n    uint256 id,\r\n    address donor,\r\n    string typeOfGood,\r\n    string weight,\r\n    string status,\r\n    address recipient\r\n  );\r\n\r\n  struct ReliefGood {\r\n    uint256 id;\r\n    address donor;\r\n    string typeOfGood;\r\n    string weight;\r\n    string status;\r\n    address recipient;\r\n  }\r\n\r\n  constructor() public {\r\n    createReliefGood(0x0000000000000000000000000000000000000001, \"Canned food\", \"0.5 kg\", \"In transit\", 0x000000000000000000000000000000000000000A);\r\n    createReliefGood(0x0000000000000000000000000000000000000002, \"Clothes\", \"1 kg\", \"In transit\", 0x000000000000000000000000000000000000000b);\r\n    createReliefGood(0x0000000000000000000000000000000000000003, \"Noodles\", \"0.87 kg\", \"Delivered\", 0x000000000000000000000000000000000000000C);\r\n  }\r\n\r\n  function createReliefGood(address _donor, string memory _typeOfGood, string memory _weight, string memory _status, address _recipient) public {\r\n    reliefGoodCount++;\r\n    reliefGoods[reliefGoodCount] = ReliefGood(reliefGoodCount, _donor, _typeOfGood, _weight, _status, _recipient);\r\n    emit ReliefGoodCreated(reliefGoodCount, _donor, _typeOfGood, _weight, _status, _recipient);\r\n  }\r\n\r\n  function updateReliefGoodStatus(uint256 _id, string memory _status) public {\r\n    reliefGoods[_id].status = _status;\r\n  }\r\n\r\n  function getReliefGood(uint256 _id) public view returns (uint256, address, string memory, string memory, string memory, address) {\r\n    ReliefGood memory reliefGood = reliefGoods[_id];\r\n    return (reliefGood.id, reliefGood.donor, reliefGood.typeOfGood, reliefGood.weight, reliefGood.status, reliefGood.recipient);\r\n  }\r\n}\r\n",
  "sourcePath": "D:/DEV/Projects/aidledger/blockchain/contracts/AidLedger.sol",
  "compiler": {
    "name": "solc",
    "version": "0.5.0+commit.1d4f565a.Emscripten.clang"
  },
  "schemaVersion": "3.0.1",
  "updatedAt": "2024-06-04T06:23:46.283Z",
  "devdoc": {
    "methods": {}
  },
  "userdoc": {
    "methods": {}
  }
}