{
  "contractName": "AidLedger",
  "abi": [
    {
      "constant": true,
      "inputs": [],
      "name": "reliefGoodCount",
      "outputs": [
        {
          "name": "",
          "type": "uint256"
        }
      ],
      "payable": false,
      "stateMutability": "view",
      "type": "function",
      "signature": "0x9394dbce"
    },
    {
      "constant": true,
      "inputs": [
        {
          "name": "",
          "type": "uint256"
        }
      ],
      "name": "reliefGoods",
      "outputs": [
        {
          "name": "id",
          "type": "uint256"
        },
        {
          "name": "donor",
          "type": "address"
        },
        {
          "name": "typeOfGood",
          "type": "string"
        },
        {
          "name": "weight",
          "type": "string"
        },
        {
          "name": "status",
          "type": "string"
        },
        {
          "name": "handler",
          "type": "address"
        },
        {
          "name": "recipient",
          "type": "address"
        }
      ],
      "payable": false,
      "stateMutability": "view",
      "type": "function",
      "signature": "0xca83b51a"
    },
    {
      "inputs": [],
      "payable": false,
      "stateMutability": "nonpayable",
      "type": "constructor",
      "signature": "constructor"
    },
    {
      "anonymous": false,
      "inputs": [
        {
          "indexed": false,
          "name": "id",
          "type": "uint256"
        },
        {
          "indexed": false,
          "name": "donor",
          "type": "address"
        },
        {
          "indexed": false,
          "name": "typeOfGood",
          "type": "string"
        },
        {
          "indexed": false,
          "name": "weight",
          "type": "string"
        },
        {
          "indexed": false,
          "name": "status",
          "type": "string"
        },
        {
          "indexed": false,
          "name": "handler",
          "type": "address"
        },
        {
          "indexed": false,
          "name": "recipient",
          "type": "address"
        }
      ],
      "name": "ReliefGoodCreated",
      "type": "event",
      "signature": "0x3b1d802fdd1232e185f0c32ca8b452c42b4f8998f55b5e5d7aa1feb93b4454c3"
    },
    {
      "constant": false,
      "inputs": [
        {
          "name": "_donor",
          "type": "address"
        },
        {
          "name": "_typeOfGood",
          "type": "string"
        },
        {
          "name": "_weight",
          "type": "string"
        },
        {
          "name": "_status",
          "type": "string"
        },
        {
          "name": "_handler",
          "type": "address"
        },
        {
          "name": "_recipient",
          "type": "address"
        }
      ],
      "name": "createReliefGood",
      "outputs": [],
      "payable": false,
      "stateMutability": "nonpayable",
      "type": "function",
      "signature": "0xa3deacf5"
    },
    {
      "constant": false,
      "inputs": [
        {
          "name": "_id",
          "type": "uint256"
        },
        {
          "name": "_status",
          "type": "string"
        },
        {
          "name": "_handler",
          "type": "address"
        }
      ],
      "name": "updateReliefGoodHandler",
      "outputs": [],
      "payable": false,
      "stateMutability": "nonpayable",
      "type": "function",
      "signature": "0x054ff3b4"
    },
    {
      "constant": false,
      "inputs": [
        {
          "name": "_id",
          "type": "uint256"
        },
        {
          "name": "_status",
          "type": "string"
        },
        {
          "name": "_recipient",
          "type": "address"
        }
      ],
      "name": "updateReliefGoodRecipient",
      "outputs": [],
      "payable": false,
      "stateMutability": "nonpayable",
      "type": "function",
      "signature": "0x440c620f"
    },
    {
      "constant": true,
      "inputs": [
        {
          "name": "_id",
          "type": "uint256"
        }
      ],
      "name": "getReliefGood",
      "outputs": [
        {
          "name": "",
          "type": "uint256"
        },
        {
          "name": "",
          "type": "address"
        },
        {
          "name": "",
          "type": "string"
        },
        {
          "name": "",
          "type": "string"
        },
        {
          "name": "",
          "type": "string"
        },
        {
          "name": "",
          "type": "address"
        },
        {
          "name": "",
          "type": "address"
        }
      ],
      "payable": false,
      "stateMutability": "view",
      "type": "function",
      "signature": "0x98aa4e3a"
    }
  ],
  "bytecode": "0x60806040526000805534801561001457600080fd5b50610f32806100246000396000f3fe6080604052600436106100775763ffffffff7c0100000000000000000000000000000000000000000000000000000000600035041663054ff3b4811461007c578063440c620f146101435780639394dbce1461020857806398aa4e3a1461022f578063a3deacf5146103ef578063ca83b51a146105d6575b600080fd5b34801561008857600080fd5b506101416004803603606081101561009f57600080fd5b813591908101906040810160208201356401000000008111156100c157600080fd5b8201836020820111156100d357600080fd5b803590602001918460018302840111640100000000831117156100f557600080fd5b91908080601f01602080910402602001604051908101604052809392919081815260200183838082843760009201919091525092955050509035600160a060020a031691506106009050565b005b34801561014f57600080fd5b506101416004803603606081101561016657600080fd5b8135919081019060408101602082013564010000000081111561018857600080fd5b82018360208201111561019a57600080fd5b803590602001918460018302840111640100000000831117156101bc57600080fd5b91908080601f01602080910402602001604051908101604052809392919081815260200183838082843760009201919091525092955050509035600160a060020a031691506106669050565b34801561021457600080fd5b5061021d6106cc565b60408051918252519081900360200190f35b34801561023b57600080fd5b506102596004803603602081101561025257600080fd5b50356106d2565b6040518088815260200187600160a060020a0316600160a060020a0316815260200180602001806020018060200186600160a060020a0316600160a060020a0316815260200185600160a060020a0316600160a060020a03168152602001848103845289818151815260200191508051906020019080838360005b838110156102ec5781810151838201526020016102d4565b50505050905090810190601f1680156103195780820380516001836020036101000a031916815260200191505b5084810383528851815288516020918201918a019080838360005b8381101561034c578181015183820152602001610334565b50505050905090810190601f1680156103795780820380516001836020036101000a031916815260200191505b50848103825287518152875160209182019189019080838360005b838110156103ac578181015183820152602001610394565b50505050905090810190601f1680156103d95780820380516001836020036101000a031916815260200191505b509a505050505050505050505060405180910390f35b3480156103fb57600080fd5b50610141600480360360c081101561041257600080fd5b600160a060020a03823516919081019060408101602082013564010000000081111561043d57600080fd5b82018360208201111561044f57600080fd5b8035906020019184600183028401116401000000008311171561047157600080fd5b91908080601f01602080910402602001604051908101604052809392919081815260200183838082843760009201919091525092959493602081019350359150506401000000008111156104c457600080fd5b8201836020820111156104d657600080fd5b803590602001918460018302840111640100000000831117156104f857600080fd5b91908080601f016020809104026020016040519081016040528093929190818152602001838380828437600092019190915250929594936020810193503591505064010000000081111561054b57600080fd5b82018360208201111561055d57600080fd5b8035906020019184600183028401116401000000008311171561057f57600080fd5b91908080601f01602080910402602001604051908101604052809392919081815260200183838082843760009201919091525092955050600160a060020a03833581169450602090930135909216915061092b9050565b3480156105e257600080fd5b50610259600480360360208110156105f957600080fd5b5035610c26565b6000838152600160209081526040909120835161062592600490920191850190610e12565b50600092835260016020526040909220600501805473ffffffffffffffffffffffffffffffffffffffff1916600160a060020a039093169290921790915550565b6000838152600160209081526040909120835161068b92600490920191850190610e12565b50600092835260016020526040909220600601805473ffffffffffffffffffffffffffffffffffffffff1916600160a060020a039093169290921790915550565b60005481565b60008060608060606000806106e5610e90565b600089815260016020818152604092839020835160e0810185528154815281840154600160a060020a0316818401526002808301805487516101009782161597909702600019011691909104601f81018590048502860185018752808652919592949286019390919083018282801561079f5780601f106107745761010080835404028352916020019161079f565b820191906000526020600020905b81548152906001019060200180831161078257829003601f168201915b505050918352505060038201805460408051602060026001851615610100026000190190941693909304601f81018490048402820184019092528181529382019392918301828280156108335780601f1061080857610100808354040283529160200191610833565b820191906000526020600020905b81548152906001019060200180831161081657829003601f168201915b505050918352505060048201805460408051602060026001851615610100026000190190941693909304601f81018490048402820184019092528181529382019392918301828280156108c75780601f1061089c576101008083540402835291602001916108c7565b820191906000526020600020905b8154815290600101906020018083116108aa57829003601f168201915b50505091835250506005820154600160a060020a0390811660208084019190915260069093015416604091820152825191830151908301516060840151608085015160a086015160c090960151949f939e50919c509a509850919650945092505050565b6000805460019081018083556040805160e081018252828152600160a060020a038b811660208084019182528385018d8152606085018d9052608085018c90528a841660a086015289841660c086015295885286815293909620825181559551948601805473ffffffffffffffffffffffffffffffffffffffff19169590911694909417909355905180519293926109c99260028501920190610e12565b50606082015180516109e5916003840191602090910190610e12565b5060808201518051610a01916004840191602090910190610e12565b5060a08201518160050160006101000a815481600160a060020a030219169083600160a060020a0316021790555060c08201518160060160006101000a815481600160a060020a030219169083600160a060020a031602179055509050507f3b1d802fdd1232e185f0c32ca8b452c42b4f8998f55b5e5d7aa1feb93b4454c36000548787878787876040518088815260200187600160a060020a0316600160a060020a0316815260200180602001806020018060200186600160a060020a0316600160a060020a0316815260200185600160a060020a0316600160a060020a03168152602001848103845289818151815260200191508051906020019080838360005b83811015610b1c578181015183820152602001610b04565b50505050905090810190601f168015610b495780820380516001836020036101000a031916815260200191505b5084810383528851815288516020918201918a019080838360005b83811015610b7c578181015183820152602001610b64565b50505050905090810190601f168015610ba95780820380516001836020036101000a031916815260200191505b50848103825287518152875160209182019189019080838360005b83811015610bdc578181015183820152602001610bc4565b50505050905090810190601f168015610c095780820380516001836020036101000a031916815260200191505b509a505050505050505050505060405180910390a1505050505050565b6001602081815260009283526040928390208054818401546002808401805488516101009882161598909802600019011691909104601f81018690048602870186019097528686529195600160a060020a03909116949293830182828015610ccf5780601f10610ca457610100808354040283529160200191610ccf565b820191906000526020600020905b815481529060010190602001808311610cb257829003601f168201915b5050505060038301805460408051602060026001851615610100026000190190941693909304601f8101849004840282018401909252818152949594935090830182828015610d5f5780601f10610d3457610100808354040283529160200191610d5f565b820191906000526020600020905b815481529060010190602001808311610d4257829003601f168201915b5050505060048301805460408051602060026001851615610100026000190190941693909304601f8101849004840282018401909252818152949594935090830182828015610def5780601f10610dc457610100808354040283529160200191610def565b820191906000526020600020905b815481529060010190602001808311610dd257829003601f168201915b5050505060058301546006909301549192600160a060020a039081169216905087565b828054600181600116156101000203166002900490600052602060002090601f016020900481019282601f10610e5357805160ff1916838001178555610e80565b82800160010185558215610e80579182015b82811115610e80578251825591602001919060010190610e65565b50610e8c929150610ee9565b5090565b60e060405190810160405280600081526020016000600160a060020a031681526020016060815260200160608152602001606081526020016000600160a060020a031681526020016000600160a060020a031681525090565b610f0391905b80821115610e8c5760008155600101610eef565b9056fea165627a7a72305820899be51e1cd777d619173a755136c7b40c092cdf01f26381a57fef2a0207ce280029",
  "source": "pragma solidity ^0.5.0;\r\n\r\ncontract AidLedger {\r\n  uint256 public reliefGoodCount = 0;\r\n  mapping(uint256 => ReliefGood) public reliefGoods;\r\n\r\n  event ReliefGoodCreated(\r\n    uint256 id,\r\n    address donor,\r\n    string typeOfGood,\r\n    string weight,\r\n    string status,\r\n    address handler,\r\n    address recipient\r\n  );\r\n\r\n  struct ReliefGood {\r\n    uint256 id;\r\n    address donor;\r\n    string typeOfGood;\r\n    string weight;\r\n    string status;\r\n    address handler;\r\n    address recipient;\r\n  }\r\n\r\n  constructor() public {\r\n  }\r\n\r\n  function createReliefGood(address _donor, string memory _typeOfGood, string memory _weight, string memory _status, address _handler, address _recipient) public {\r\n    reliefGoodCount++;\r\n    reliefGoods[reliefGoodCount] = ReliefGood(reliefGoodCount, _donor, _typeOfGood, _weight, _status, _handler, _recipient);\r\n    emit ReliefGoodCreated(reliefGoodCount, _donor, _typeOfGood, _weight, _status, _handler, _recipient);\r\n  }\r\n\r\n  function updateReliefGoodHandler(uint256 _id, string memory _status, address _handler) public {\r\n    reliefGoods[_id].status = _status;\r\n    reliefGoods[_id].handler = _handler;\r\n  }\r\n\r\n  function updateReliefGoodRecipient(uint256 _id, string memory _status, address _recipient) public {\r\n    reliefGoods[_id].status = _status;\r\n    reliefGoods[_id].recipient = _recipient;\r\n  }\r\n\r\n  function getReliefGood(uint256 _id) public view returns (uint256, address, string memory, string memory, string memory, address, address) {\r\n    ReliefGood memory reliefGood = reliefGoods[_id];\r\n    return (reliefGood.id, reliefGood.donor, reliefGood.typeOfGood, reliefGood.weight, reliefGood.status, reliefGood.handler, reliefGood.recipient);\r\n  }\r\n}\r\n",
  "sourcePath": "D:/DEV/Projects/aidledger/blockchain/contracts/AidLedger.sol",
  "compiler": {
    "name": "solc",
    "version": "0.5.0+commit.1d4f565a.Emscripten.clang"
  },
  "schemaVersion": "3.0.1",
  "updatedAt": "2024-06-07T08:25:08.083Z",
  "devdoc": {
    "methods": {}
  },
  "userdoc": {
    "methods": {}
  }
}