{
  "contractName": "AidLedger",
  "abi": [
    {
      "constant": true,
      "inputs": [],
      "name": "reliefGoodCount",
      "outputs": [
        {
          "name": "",
          "type": "uint256"
        }
      ],
      "payable": false,
      "stateMutability": "view",
      "type": "function",
      "signature": "0x9394dbce"
    },
    {
      "constant": true,
      "inputs": [
        {
          "name": "",
          "type": "uint256"
        }
      ],
      "name": "reliefGoods",
      "outputs": [
        {
          "name": "id",
          "type": "uint256"
        },
        {
          "name": "donor",
          "type": "string"
        },
        {
          "name": "description",
          "type": "string"
        },
        {
          "name": "status",
          "type": "string"
        },
        {
          "name": "recipient",
          "type": "string"
        }
      ],
      "payable": false,
      "stateMutability": "view",
      "type": "function",
      "signature": "0xca83b51a"
    },
    {
      "inputs": [],
      "payable": false,
      "stateMutability": "nonpayable",
      "type": "constructor",
      "signature": "constructor"
    },
    {
      "constant": false,
      "inputs": [
        {
          "name": "_donor",
          "type": "string"
        },
        {
          "name": "_description",
          "type": "string"
        },
        {
          "name": "_status",
          "type": "string"
        },
        {
          "name": "_recipient",
          "type": "string"
        }
      ],
      "name": "createReliefGood",
      "outputs": [],
      "payable": false,
      "stateMutability": "nonpayable",
      "type": "function",
      "signature": "0xa7f75f7f"
    },
    {
      "constant": false,
      "inputs": [
        {
          "name": "_id",
          "type": "uint256"
        },
        {
          "name": "_status",
          "type": "string"
        }
      ],
      "name": "updateReliefGoodstatus",
      "outputs": [],
      "payable": false,
      "stateMutability": "nonpayable",
      "type": "function",
      "signature": "0x3ee4a127"
    },
    {
      "constant": true,
      "inputs": [
        {
          "name": "_id",
          "type": "uint256"
        }
      ],
      "name": "getReliefGood",
      "outputs": [
        {
          "name": "",
          "type": "uint256"
        },
        {
          "name": "",
          "type": "string"
        },
        {
          "name": "",
          "type": "string"
        },
        {
          "name": "",
          "type": "string"
        }
      ],
      "payable": false,
      "stateMutability": "view",
      "type": "function",
      "signature": "0x98aa4e3a"
    }
  ],
  "bytecode": "0x6080604052600080553480156200001557600080fd5b50620001076040805190810160405280600381526020017f43656400000000000000000000000000000000000000000000000000000000008152506040805190810160405280600681526020017f486f74646f6700000000000000000000000000000000000000000000000000008152506040805190810160405280600981526020017f44656c69766572656400000000000000000000000000000000000000000000008152506040805190810160405280600481526020017f4d69677300000000000000000000000000000000000000000000000000000000815250620001fe640100000000026401000000009004565b620001f86040805190810160405280600481526020017f4b796c65000000000000000000000000000000000000000000000000000000008152506040805190810160405280600381526020017f45676700000000000000000000000000000000000000000000000000000000008152506040805190810160405280600a81526020017f496e207472616e736974000000000000000000000000000000000000000000008152506040805190810160405280600881526020017f436c6172656e6365000000000000000000000000000000000000000000000000815250620001fe640100000000026401000000009004565b62000363565b6000805460019081018083556040805160a08101825282815260208082018a81528284018a9052606083018990526080830188905293865284815291909420845181559151805192936200025b93908501929190910190620002be565b506040820151805162000279916002840191602090910190620002be565b506060820151805162000297916003840191602090910190620002be565b5060808201518051620002b5916004840191602090910190620002be565b50505050505050565b828054600181600116156101000203166002900490600052602060002090601f016020900481019282601f106200030157805160ff191683800117855562000331565b8280016001018555821562000331579182015b828111156200033157825182559160200191906001019062000314565b506200033f92915062000343565b5090565b6200036091905b808211156200033f57600081556001016200034a565b90565b610ccd80620003736000396000f3fe60806040526004361061006c5763ffffffff7c01000000000000000000000000000000000000000000000000000000006000350416633ee4a12781146100715780639394dbce1461012d57806398aa4e3a14610154578063a7f75f7f146102c9578063ca83b51a14610511575b600080fd5b34801561007d57600080fd5b5061012b6004803603604081101561009457600080fd5b813591908101906040810160208201356401000000008111156100b657600080fd5b8201836020820111156100c857600080fd5b803590602001918460018302840111640100000000831117156100ea57600080fd5b91908080601f0160208091040260200160405190810160405280939291908181526020018383808284376000920191909152509295506106ec945050505050565b005b34801561013957600080fd5b50610142610716565b60408051918252519081900360200190f35b34801561016057600080fd5b5061017e6004803603602081101561017757600080fd5b503561071c565b60405180858152602001806020018060200180602001848103845287818151815260200191508051906020019080838360005b838110156101c95781810151838201526020016101b1565b50505050905090810190601f1680156101f65780820380516001836020036101000a031916815260200191505b50848103835286518152865160209182019188019080838360005b83811015610229578181015183820152602001610211565b50505050905090810190601f1680156102565780820380516001836020036101000a031916815260200191505b50848103825285518152855160209182019187019080838360005b83811015610289578181015183820152602001610271565b50505050905090810190601f1680156102b65780820380516001836020036101000a031916815260200191505b5097505050505050505060405180910390f35b3480156102d557600080fd5b5061012b600480360360808110156102ec57600080fd5b81019060208101813564010000000081111561030757600080fd5b82018360208201111561031957600080fd5b8035906020019184600183028401116401000000008311171561033b57600080fd5b91908080601f016020809104026020016040519081016040528093929190818152602001838380828437600092019190915250929594936020810193503591505064010000000081111561038e57600080fd5b8201836020820111156103a057600080fd5b803590602001918460018302840111640100000000831117156103c257600080fd5b91908080601f016020809104026020016040519081016040528093929190818152602001838380828437600092019190915250929594936020810193503591505064010000000081111561041557600080fd5b82018360208201111561042757600080fd5b8035906020019184600183028401116401000000008311171561044957600080fd5b91908080601f016020809104026020016040519081016040528093929190818152602001838380828437600092019190915250929594936020810193503591505064010000000081111561049c57600080fd5b8201836020820111156104ae57600080fd5b803590602001918460018302840111640100000000831117156104d057600080fd5b91908080601f0160208091040260200160405190810160405280939291908181526020018383808284376000920191909152509295506108f6945050505050565b34801561051d57600080fd5b5061053b6004803603602081101561053457600080fd5b50356109ae565b6040518086815260200180602001806020018060200180602001858103855289818151815260200191508051906020019080838360005b8381101561058a578181015183820152602001610572565b50505050905090810190601f1680156105b75780820380516001836020036101000a031916815260200191505b5085810384528851815288516020918201918a019080838360005b838110156105ea5781810151838201526020016105d2565b50505050905090810190601f1680156106175780820380516001836020036101000a031916815260200191505b50858103835287518152875160209182019189019080838360005b8381101561064a578181015183820152602001610632565b50505050905090810190601f1680156106775780820380516001836020036101000a031916815260200191505b50858103825286518152865160209182019188019080838360005b838110156106aa578181015183820152602001610692565b50505050905090810190601f1680156106d75780820380516001836020036101000a031916815260200191505b50995050505050505050505060405180910390f35b6000828152600160209081526040909120825161071192600390920191840190610c06565b505050565b60005481565b60008181526001602081815260408084208054818501805484516002978216156101000260001901909116879004601f8101879004870282018701909552848152606096879687969495939491840193600301929185918301828280156107c45780601f10610799576101008083540402835291602001916107c4565b820191906000526020600020905b8154815290600101906020018083116107a757829003601f168201915b5050855460408051602060026001851615610100026000190190941693909304601f8101849004840282018401909252818152959850879450925084019050828280156108525780601f1061082757610100808354040283529160200191610852565b820191906000526020600020905b81548152906001019060200180831161083557829003601f168201915b5050845460408051602060026001851615610100026000190190941693909304601f8101849004840282018401909252818152959750869450925084019050828280156108e05780601f106108b5576101008083540402835291602001916108e0565b820191906000526020600020905b8154815290600101906020018083116108c357829003601f168201915b5050505050905093509350935093509193509193565b6000805460019081018083556040805160a08101825282815260208082018a81528284018a90526060830189905260808301889052938652848152919094208451815591518051929361095193908501929190910190610c06565b506040820151805161096d916002840191602090910190610c06565b5060608201518051610989916003840191602090910190610c06565b50608082015180516109a5916004840191602090910190610c06565b50505050505050565b600160208181526000928352604092839020805481840180548651600296821615610100026000190190911695909504601f81018590048502860185019096528585529094919392909190830182828015610a4a5780601f10610a1f57610100808354040283529160200191610a4a565b820191906000526020600020905b815481529060010190602001808311610a2d57829003601f168201915b50505060028085018054604080516020601f6000196101006001871615020190941695909504928301859004850281018501909152818152959695945090925090830182828015610adc5780601f10610ab157610100808354040283529160200191610adc565b820191906000526020600020905b815481529060010190602001808311610abf57829003601f168201915b5050505060038301805460408051602060026001851615610100026000190190941693909304601f8101849004840282018401909252818152949594935090830182828015610b6c5780601f10610b4157610100808354040283529160200191610b6c565b820191906000526020600020905b815481529060010190602001808311610b4f57829003601f168201915b5050505060048301805460408051602060026001851615610100026000190190941693909304601f8101849004840282018401909252818152949594935090830182828015610bfc5780601f10610bd157610100808354040283529160200191610bfc565b820191906000526020600020905b815481529060010190602001808311610bdf57829003601f168201915b5050505050905085565b828054600181600116156101000203166002900490600052602060002090601f016020900481019282601f10610c4757805160ff1916838001178555610c74565b82800160010185558215610c74579182015b82811115610c74578251825591602001919060010190610c59565b50610c80929150610c84565b5090565b610c9e91905b80821115610c805760008155600101610c8a565b9056fea165627a7a72305820e44822a5ac7e1bfd5052b13c719e65ab74f4af5272c1bcc78b6fccb322fa314f0029",
  "source": "pragma solidity ^0.5.0;\r\n\r\ncontract AidLedger {\r\n  uint public reliefGoodCount = 0;\r\n  mapping(uint => ReliefGood) public reliefGoods;\r\n\r\n  struct ReliefGood {\r\n    uint id;\r\n    string donor; // change to address later\r\n    string description;\r\n    string status;\r\n    string recipient; // change to address later\r\n  }\r\n\r\n  constructor() public {\r\n    createReliefGood(\"Ced\", \"Hotdog\", \"Delivered\", \"Migs\");\r\n    createReliefGood(\"Kyle\", \"Egg\", \"In transit\", \"Clarence\");\r\n  }\r\n\r\n  // Create a new relief good\r\n  function createReliefGood(string memory _donor, string memory _description, string memory _status, string memory _recipient) public {\r\n    reliefGoodCount++;\r\n    reliefGoods[reliefGoodCount] = ReliefGood(reliefGoodCount, _donor, _description, _status, _recipient);\r\n  }\r\n\r\n  // Update relief good status\r\n  function updateReliefGoodstatus(uint _id, string memory _status) public {\r\n    reliefGoods[_id].status = _status;\r\n  }\r\n\r\n  // Get relief good details\r\n  function getReliefGood(uint _id) public view returns (uint, string memory, string memory, string memory) {\r\n    return (reliefGoods[_id].id, reliefGoods[_id].donor, reliefGoods[_id].description, reliefGoods[_id].status);\r\n  }\r\n}",
  "sourcePath": "D:/DEV/Projects/aidledger/blockchain/contracts/AidLedger.sol",
  "compiler": {
    "name": "solc",
    "version": "0.5.0+commit.1d4f565a.Emscripten.clang"
  },
  "schemaVersion": "3.0.1",
  "updatedAt": "2024-05-29T10:20:46.469Z",
  "devdoc": {
    "methods": {}
  },
  "userdoc": {
    "methods": {}
  }
}