{
  "contractName": "AidLedger",
  "abi": [
    {
      "constant": true,
      "inputs": [],
      "name": "reliefGoodCount",
      "outputs": [
        {
          "name": "",
          "type": "uint256"
        }
      ],
      "payable": false,
      "stateMutability": "view",
      "type": "function",
      "signature": "0x9394dbce"
    },
    {
      "constant": true,
      "inputs": [
        {
          "name": "",
          "type": "uint256"
        }
      ],
      "name": "reliefGoods",
      "outputs": [
        {
          "name": "id",
          "type": "uint256"
        },
        {
          "name": "donor",
          "type": "address"
        },
        {
          "name": "typeOfGood",
          "type": "string"
        },
        {
          "name": "weight",
          "type": "string"
        },
        {
          "name": "status",
          "type": "string"
        },
        {
          "name": "recipient",
          "type": "address"
        }
      ],
      "payable": false,
      "stateMutability": "view",
      "type": "function",
      "signature": "0xca83b51a"
    },
    {
      "inputs": [],
      "payable": false,
      "stateMutability": "nonpayable",
      "type": "constructor",
      "signature": "constructor"
    },
    {
      "anonymous": false,
      "inputs": [
        {
          "indexed": false,
          "name": "id",
          "type": "uint256"
        },
        {
          "indexed": false,
          "name": "donor",
          "type": "address"
        },
        {
          "indexed": false,
          "name": "typeOfGood",
          "type": "string"
        },
        {
          "indexed": false,
          "name": "weight",
          "type": "string"
        },
        {
          "indexed": false,
          "name": "status",
          "type": "string"
        },
        {
          "indexed": false,
          "name": "recipient",
          "type": "address"
        }
      ],
      "name": "ReliefGoodCreated",
      "type": "event",
      "signature": "0x935fa8a11fafc25e54d9bccef3f70047eef36ac3803efbd4460b97ae9f5d1d64"
    },
    {
      "constant": false,
      "inputs": [
        {
          "name": "_donor",
          "type": "address"
        },
        {
          "name": "_typeOfGood",
          "type": "string"
        },
        {
          "name": "_weight",
          "type": "string"
        },
        {
          "name": "_status",
          "type": "string"
        },
        {
          "name": "_recipient",
          "type": "address"
        }
      ],
      "name": "createReliefGood",
      "outputs": [],
      "payable": false,
      "stateMutability": "nonpayable",
      "type": "function",
      "signature": "0x884be978"
    },
    {
      "constant": false,
      "inputs": [
        {
          "name": "_id",
          "type": "uint256"
        },
        {
          "name": "_status",
          "type": "string"
        }
      ],
      "name": "updateReliefGoodStatus",
      "outputs": [],
      "payable": false,
      "stateMutability": "nonpayable",
      "type": "function",
      "signature": "0x463a3e1a"
    },
    {
      "constant": false,
      "inputs": [
        {
          "name": "_id",
          "type": "uint256"
        },
        {
          "name": "_recipient",
          "type": "address"
        }
      ],
      "name": "updateReliefGoodDelivered",
      "outputs": [],
      "payable": false,
      "stateMutability": "nonpayable",
      "type": "function",
      "signature": "0x31a2ea25"
    },
    {
      "constant": true,
      "inputs": [
        {
          "name": "_id",
          "type": "uint256"
        }
      ],
      "name": "getReliefGood",
      "outputs": [
        {
          "name": "",
          "type": "uint256"
        },
        {
          "name": "",
          "type": "address"
        },
        {
          "name": "",
          "type": "string"
        },
        {
          "name": "",
          "type": "string"
        },
        {
          "name": "",
          "type": "string"
        },
        {
          "name": "",
          "type": "address"
        }
      ],
      "payable": false,
      "stateMutability": "view",
      "type": "function",
      "signature": "0x98aa4e3a"
    }
  ],
  "bytecode": "0x60806040526000805534801561001457600080fd5b50610de9806100246000396000f3fe6080604052600436106100775763ffffffff7c010000000000000000000000000000000000000000000000000000000060003504166331a2ea25811461007c578063463a3e1a146100b7578063884be978146101715780639394dbce1461034d57806398aa4e3a14610374578063ca83b51a1461051b575b600080fd5b34801561008857600080fd5b506100b56004803603604081101561009f57600080fd5b5080359060200135600160a060020a0316610545565b005b3480156100c357600080fd5b506100b5600480360360408110156100da57600080fd5b813591908101906040810160208201356401000000008111156100fc57600080fd5b82018360208201111561010e57600080fd5b8035906020019184600183028401116401000000008311171561013057600080fd5b91908080601f0160208091040260200160405190810160405280939291908181526020018383808284376000920191909152509295506105da945050505050565b34801561017d57600080fd5b506100b5600480360360a081101561019457600080fd5b600160a060020a0382351691908101906040810160208201356401000000008111156101bf57600080fd5b8201836020820111156101d157600080fd5b803590602001918460018302840111640100000000831117156101f357600080fd5b91908080601f016020809104026020016040519081016040528093929190818152602001838380828437600092019190915250929594936020810193503591505064010000000081111561024657600080fd5b82018360208201111561025857600080fd5b8035906020019184600183028401116401000000008311171561027a57600080fd5b91908080601f01602080910402602001604051908101604052809392919081815260200183838082843760009201919091525092959493602081019350359150506401000000008111156102cd57600080fd5b8201836020820111156102df57600080fd5b8035906020019184600183028401116401000000008311171561030157600080fd5b91908080601f01602080910402602001604051908101604052809392919081815260200183838082843760009201919091525092955050509035600160a060020a031691506106049050565b34801561035957600080fd5b506103626108af565b60408051918252519081900360200190f35b34801561038057600080fd5b5061039e6004803603602081101561039757600080fd5b50356108b5565b6040518087815260200186600160a060020a0316600160a060020a0316815260200180602001806020018060200185600160a060020a0316600160a060020a03168152602001848103845288818151815260200191508051906020019080838360005b83811015610419578181015183820152602001610401565b50505050905090810190601f1680156104465780820380516001836020036101000a031916815260200191505b50848103835287518152875160209182019189019080838360005b83811015610479578181015183820152602001610461565b50505050905090810190601f1680156104a65780820380516001836020036101000a031916815260200191505b50848103825286518152865160209182019188019080838360005b838110156104d95781810151838201526020016104c1565b50505050905090810190601f1680156105065780820380516001836020036101000a031916815260200191505b50995050505050505050505060405180910390f35b34801561052757600080fd5b5061039e6004803603602081101561053e57600080fd5b5035610af7565b604080518082018252600981527f44656c697665726564000000000000000000000000000000000000000000000060208083019182526000868152600190915292909220905161059b9260049092019190610cd9565b50600091825260016020526040909120600501805473ffffffffffffffffffffffffffffffffffffffff1916600160a060020a03909216919091179055565b600082815260016020908152604090912082516105ff92600490920191840190610cd9565b505050565b6000805460019081018083556040805160c081018252828152600160a060020a038a811660208084019182528385018c8152606085018c9052608085018b905289841660a086015295885286815293909620825181559551948601805473ffffffffffffffffffffffffffffffffffffffff191695909116949094179093559051805192939261069a9260028501920190610cd9565b50606082015180516106b6916003840191602090910190610cd9565b50608082015180516106d2916004840191602090910190610cd9565b5060a08201518160050160006101000a815481600160a060020a030219169083600160a060020a031602179055509050507f935fa8a11fafc25e54d9bccef3f70047eef36ac3803efbd4460b97ae9f5d1d6460005486868686866040518087815260200186600160a060020a0316600160a060020a0316815260200180602001806020018060200185600160a060020a0316600160a060020a03168152602001848103845288818151815260200191508051906020019080838360005b838110156107a757818101518382015260200161078f565b50505050905090810190601f1680156107d45780820380516001836020036101000a031916815260200191505b50848103835287518152875160209182019189019080838360005b838110156108075781810151838201526020016107ef565b50505050905090810190601f1680156108345780820380516001836020036101000a031916815260200191505b50848103825286518152865160209182019188019080838360005b8381101561086757818101518382015260200161084f565b50505050905090810190601f1680156108945780820380516001836020036101000a031916815260200191505b50995050505050505050505060405180910390a15050505050565b60005481565b600080606080606060006108c7610d57565b600088815260016020818152604092839020835160c0810185528154815281840154600160a060020a0316818401526002808301805487516101009782161597909702600019011691909104601f8101859004850286018501875280865291959294928601939091908301828280156109815780601f1061095657610100808354040283529160200191610981565b820191906000526020600020905b81548152906001019060200180831161096457829003601f168201915b505050918352505060038201805460408051602060026001851615610100026000190190941693909304601f8101849004840282018401909252818152938201939291830182828015610a155780601f106109ea57610100808354040283529160200191610a15565b820191906000526020600020905b8154815290600101906020018083116109f857829003601f168201915b505050918352505060048201805460408051602060026001851615610100026000190190941693909304601f8101849004840282018401909252818152938201939291830182828015610aa95780601f10610a7e57610100808354040283529160200191610aa9565b820191906000526020600020905b815481529060010190602001808311610a8c57829003601f168201915b505050918352505060059190910154600160a060020a031660209182015281519082015160408301516060840151608085015160a090950151939d929c50909a509850919650945092505050565b6001602081815260009283526040928390208054818401546002808401805488516101009882161598909802600019011691909104601f81018690048602870186019097528686529195600160a060020a03909116949293830182828015610ba05780601f10610b7557610100808354040283529160200191610ba0565b820191906000526020600020905b815481529060010190602001808311610b8357829003601f168201915b5050505060038301805460408051602060026001851615610100026000190190941693909304601f8101849004840282018401909252818152949594935090830182828015610c305780601f10610c0557610100808354040283529160200191610c30565b820191906000526020600020905b815481529060010190602001808311610c1357829003601f168201915b5050505060048301805460408051602060026001851615610100026000190190941693909304601f8101849004840282018401909252818152949594935090830182828015610cc05780601f10610c9557610100808354040283529160200191610cc0565b820191906000526020600020905b815481529060010190602001808311610ca357829003601f168201915b50505060059093015491925050600160a060020a031686565b828054600181600116156101000203166002900490600052602060002090601f016020900481019282601f10610d1a57805160ff1916838001178555610d47565b82800160010185558215610d47579182015b82811115610d47578251825591602001919060010190610d2c565b50610d53929150610da0565b5090565b60c060405190810160405280600081526020016000600160a060020a031681526020016060815260200160608152602001606081526020016000600160a060020a031681525090565b610dba91905b80821115610d535760008155600101610da6565b9056fea165627a7a72305820489b7c1a4b99e986e4ae96d4ac8c928f09c49166576068d6a8082a5c1d076af70029",
  "source": "pragma solidity ^0.5.0;\r\n\r\ncontract AidLedger {\r\n  uint256 public reliefGoodCount = 0;\r\n  mapping(uint256 => ReliefGood) public reliefGoods;\r\n\r\n  event ReliefGoodCreated(\r\n    uint256 id,\r\n    address donor,\r\n    string typeOfGood,\r\n    string weight,\r\n    string status,\r\n    address recipient\r\n  );\r\n\r\n  struct ReliefGood {\r\n    uint256 id;\r\n    address donor;\r\n    string typeOfGood;\r\n    string weight;\r\n    string status;\r\n    address recipient;\r\n  }\r\n\r\n  constructor() public {\r\n  }\r\n\r\n  function createReliefGood(address _donor, string memory _typeOfGood, string memory _weight, string memory _status, address _recipient) public {\r\n    reliefGoodCount++;\r\n    reliefGoods[reliefGoodCount] = ReliefGood(reliefGoodCount, _donor, _typeOfGood, _weight, _status, _recipient);\r\n    emit ReliefGoodCreated(reliefGoodCount, _donor, _typeOfGood, _weight, _status, _recipient);\r\n  }\r\n\r\n  function updateReliefGoodStatus(uint256 _id, string memory _status) public {\r\n    reliefGoods[_id].status = _status;\r\n  }\r\n\r\n  function updateReliefGoodDelivered(uint256 _id, address _recipient) public {\r\n    reliefGoods[_id].status = \"Delivered\";\r\n    reliefGoods[_id].recipient = _recipient;\r\n  }\r\n\r\n  function getReliefGood(uint256 _id) public view returns (uint256, address, string memory, string memory, string memory, address) {\r\n    ReliefGood memory reliefGood = reliefGoods[_id];\r\n    return (reliefGood.id, reliefGood.donor, reliefGood.typeOfGood, reliefGood.weight, reliefGood.status, reliefGood.recipient);\r\n  }\r\n}\r\n",
  "sourcePath": "D:/DEV/Projects/aidledger/blockchain/contracts/AidLedger.sol",
  "compiler": {
    "name": "solc",
    "version": "0.5.0+commit.1d4f565a.Emscripten.clang"
  },
  "schemaVersion": "3.0.1",
  "updatedAt": "2024-06-05T03:43:10.005Z",
  "devdoc": {
    "methods": {}
  },
  "userdoc": {
    "methods": {}
  }
}