{
  "contractName": "AidLedger",
  "abi": [
    {
      "constant": true,
      "inputs": [],
      "name": "reliefGoodCount",
      "outputs": [
        {
          "name": "",
          "type": "uint256"
        }
      ],
      "payable": false,
      "stateMutability": "view",
      "type": "function",
      "signature": "0x9394dbce"
    },
    {
      "constant": true,
      "inputs": [
        {
          "name": "",
          "type": "uint256"
        }
      ],
      "name": "reliefGoods",
      "outputs": [
        {
          "name": "id",
          "type": "uint256"
        },
        {
          "name": "donor",
          "type": "string"
        },
        {
          "name": "description",
          "type": "string"
        },
        {
          "name": "status",
          "type": "string"
        },
        {
          "name": "recipient",
          "type": "string"
        }
      ],
      "payable": false,
      "stateMutability": "view",
      "type": "function",
      "signature": "0xca83b51a"
    },
    {
      "inputs": [],
      "payable": false,
      "stateMutability": "nonpayable",
      "type": "constructor",
      "signature": "constructor"
    },
    {
      "anonymous": false,
      "inputs": [
        {
          "indexed": false,
          "name": "id",
          "type": "uint256"
        },
        {
          "indexed": false,
          "name": "donor",
          "type": "string"
        },
        {
          "indexed": false,
          "name": "description",
          "type": "string"
        },
        {
          "indexed": false,
          "name": "status",
          "type": "string"
        },
        {
          "indexed": false,
          "name": "recipient",
          "type": "string"
        }
      ],
      "name": "ReliefGoodCreated",
      "type": "event",
      "signature": "0x8b668fba0e0a372642fd1228370def189f017540a4e2ad36bcdb289c59fe85bb"
    },
    {
      "constant": false,
      "inputs": [
        {
          "name": "_donor",
          "type": "string"
        },
        {
          "name": "_description",
          "type": "string"
        },
        {
          "name": "_status",
          "type": "string"
        },
        {
          "name": "_recipient",
          "type": "string"
        }
      ],
      "name": "createReliefGood",
      "outputs": [],
      "payable": false,
      "stateMutability": "nonpayable",
      "type": "function",
      "signature": "0xa7f75f7f"
    },
    {
      "constant": false,
      "inputs": [
        {
          "name": "_id",
          "type": "uint256"
        },
        {
          "name": "_status",
          "type": "string"
        }
      ],
      "name": "updateReliefGoodstatus",
      "outputs": [],
      "payable": false,
      "stateMutability": "nonpayable",
      "type": "function",
      "signature": "0x3ee4a127"
    },
    {
      "constant": true,
      "inputs": [
        {
          "name": "_id",
          "type": "uint256"
        }
      ],
      "name": "getReliefGood",
      "outputs": [
        {
          "name": "",
          "type": "uint256"
        },
        {
          "name": "",
          "type": "string"
        },
        {
          "name": "",
          "type": "string"
        },
        {
          "name": "",
          "type": "string"
        }
      ],
      "payable": false,
      "stateMutability": "view",
      "type": "function",
      "signature": "0x98aa4e3a"
    }
  ],
  "bytecode": "0x6080604052600080553480156200001557600080fd5b50620001076040805190810160405280600481526020017f4d696773000000000000000000000000000000000000000000000000000000008152506040805190810160405280600681526020017f486f74646f6700000000000000000000000000000000000000000000000000008152506040805190810160405280600a81526020017f496e207472616e736974000000000000000000000000000000000000000000008152506040805190810160405280600881526020017f436c6172656e6365000000000000000000000000000000000000000000000000815250620002ef640100000000026401000000009004565b620001f86040805190810160405280600481526020017f4b796c65000000000000000000000000000000000000000000000000000000008152506040805190810160405280600381526020017f45676700000000000000000000000000000000000000000000000000000000008152506040805190810160405280600a81526020017f496e207472616e736974000000000000000000000000000000000000000000008152506040805190810160405280600381526020017f4365640000000000000000000000000000000000000000000000000000000000815250620002ef640100000000026401000000009004565b620002e96040805190810160405280600381526020017f43656400000000000000000000000000000000000000000000000000000000008152506040805190810160405280600681526020017f486f74646f6700000000000000000000000000000000000000000000000000008152506040805190810160405280600981526020017f44656c69766572656400000000000000000000000000000000000000000000008152506040805190810160405280600481526020017f4d69677300000000000000000000000000000000000000000000000000000000815250620002ef640100000000026401000000009004565b62000639565b6000805460019081018083556040805160a08101825282815260208082018a81528284018a9052606083018990526080830188905293865284815291909420845181559151805192936200034c9390850192919091019062000594565b50604082015180516200036a91600284019160209091019062000594565b50606082015180516200038891600384019160209091019062000594565b5060808201518051620003a691600484019160209091019062000594565b509050507f8b668fba0e0a372642fd1228370def189f017540a4e2ad36bcdb289c59fe85bb600054858585856040518086815260200180602001806020018060200180602001858103855289818151815260200191508051906020019080838360005b838110156200042357818101518382015260200162000409565b50505050905090810190601f168015620004515780820380516001836020036101000a031916815260200191505b5085810384528851815288516020918201918a019080838360005b83811015620004865781810151838201526020016200046c565b50505050905090810190601f168015620004b45780820380516001836020036101000a031916815260200191505b50858103835287518152875160209182019189019080838360005b83811015620004e9578181015183820152602001620004cf565b50505050905090810190601f168015620005175780820380516001836020036101000a031916815260200191505b50858103825286518152865160209182019188019080838360005b838110156200054c57818101518382015260200162000532565b50505050905090810190601f1680156200057a5780820380516001836020036101000a031916815260200191505b50995050505050505050505060405180910390a150505050565b828054600181600116156101000203166002900490600052602060002090601f016020900481019282601f10620005d757805160ff191683800117855562000607565b8280016001018555821562000607579182015b8281111562000607578251825591602001919060010190620005ea565b506200061592915062000619565b5090565b6200063691905b8082111562000615576000815560010162000620565b90565b610ea680620006496000396000f3fe60806040526004361061006c5763ffffffff7c01000000000000000000000000000000000000000000000000000000006000350416633ee4a12781146100715780639394dbce1461012d57806398aa4e3a14610154578063a7f75f7f146102c9578063ca83b51a14610511575b600080fd5b34801561007d57600080fd5b5061012b6004803603604081101561009457600080fd5b813591908101906040810160208201356401000000008111156100b657600080fd5b8201836020820111156100c857600080fd5b803590602001918460018302840111640100000000831117156100ea57600080fd5b91908080601f0160208091040260200160405190810160405280939291908181526020018383808284376000920191909152509295506106ec945050505050565b005b34801561013957600080fd5b50610142610716565b60408051918252519081900360200190f35b34801561016057600080fd5b5061017e6004803603602081101561017757600080fd5b503561071c565b60405180858152602001806020018060200180602001848103845287818151815260200191508051906020019080838360005b838110156101c95781810151838201526020016101b1565b50505050905090810190601f1680156101f65780820380516001836020036101000a031916815260200191505b50848103835286518152865160209182019188019080838360005b83811015610229578181015183820152602001610211565b50505050905090810190601f1680156102565780820380516001836020036101000a031916815260200191505b50848103825285518152855160209182019187019080838360005b83811015610289578181015183820152602001610271565b50505050905090810190601f1680156102b65780820380516001836020036101000a031916815260200191505b5097505050505050505060405180910390f35b3480156102d557600080fd5b5061012b600480360360808110156102ec57600080fd5b81019060208101813564010000000081111561030757600080fd5b82018360208201111561031957600080fd5b8035906020019184600183028401116401000000008311171561033b57600080fd5b91908080601f016020809104026020016040519081016040528093929190818152602001838380828437600092019190915250929594936020810193503591505064010000000081111561038e57600080fd5b8201836020820111156103a057600080fd5b803590602001918460018302840111640100000000831117156103c257600080fd5b91908080601f016020809104026020016040519081016040528093929190818152602001838380828437600092019190915250929594936020810193503591505064010000000081111561041557600080fd5b82018360208201111561042757600080fd5b8035906020019184600183028401116401000000008311171561044957600080fd5b91908080601f016020809104026020016040519081016040528093929190818152602001838380828437600092019190915250929594936020810193503591505064010000000081111561049c57600080fd5b8201836020820111156104ae57600080fd5b803590602001918460018302840111640100000000831117156104d057600080fd5b91908080601f0160208091040260200160405190810160405280939291908181526020018383808284376000920191909152509295506108f6945050505050565b34801561051d57600080fd5b5061053b6004803603602081101561053457600080fd5b5035610b87565b6040518086815260200180602001806020018060200180602001858103855289818151815260200191508051906020019080838360005b8381101561058a578181015183820152602001610572565b50505050905090810190601f1680156105b75780820380516001836020036101000a031916815260200191505b5085810384528851815288516020918201918a019080838360005b838110156105ea5781810151838201526020016105d2565b50505050905090810190601f1680156106175780820380516001836020036101000a031916815260200191505b50858103835287518152875160209182019189019080838360005b8381101561064a578181015183820152602001610632565b50505050905090810190601f1680156106775780820380516001836020036101000a031916815260200191505b50858103825286518152865160209182019188019080838360005b838110156106aa578181015183820152602001610692565b50505050905090810190601f1680156106d75780820380516001836020036101000a031916815260200191505b50995050505050505050505060405180910390f35b6000828152600160209081526040909120825161071192600390920191840190610ddf565b505050565b60005481565b60008181526001602081815260408084208054818501805484516002978216156101000260001901909116879004601f8101879004870282018701909552848152606096879687969495939491840193600301929185918301828280156107c45780601f10610799576101008083540402835291602001916107c4565b820191906000526020600020905b8154815290600101906020018083116107a757829003601f168201915b5050855460408051602060026001851615610100026000190190941693909304601f8101849004840282018401909252818152959850879450925084019050828280156108525780601f1061082757610100808354040283529160200191610852565b820191906000526020600020905b81548152906001019060200180831161083557829003601f168201915b5050845460408051602060026001851615610100026000190190941693909304601f8101849004840282018401909252818152959750869450925084019050828280156108e05780601f106108b5576101008083540402835291602001916108e0565b820191906000526020600020905b8154815290600101906020018083116108c357829003601f168201915b5050505050905093509350935093509193509193565b6000805460019081018083556040805160a08101825282815260208082018a81528284018a90526060830189905260808301889052938652848152919094208451815591518051929361095193908501929190910190610ddf565b506040820151805161096d916002840191602090910190610ddf565b5060608201518051610989916003840191602090910190610ddf565b50608082015180516109a5916004840191602090910190610ddf565b509050507f8b668fba0e0a372642fd1228370def189f017540a4e2ad36bcdb289c59fe85bb600054858585856040518086815260200180602001806020018060200180602001858103855289818151815260200191508051906020019080838360005b83811015610a20578181015183820152602001610a08565b50505050905090810190601f168015610a4d5780820380516001836020036101000a031916815260200191505b5085810384528851815288516020918201918a019080838360005b83811015610a80578181015183820152602001610a68565b50505050905090810190601f168015610aad5780820380516001836020036101000a031916815260200191505b50858103835287518152875160209182019189019080838360005b83811015610ae0578181015183820152602001610ac8565b50505050905090810190601f168015610b0d5780820380516001836020036101000a031916815260200191505b50858103825286518152865160209182019188019080838360005b83811015610b40578181015183820152602001610b28565b50505050905090810190601f168015610b6d5780820380516001836020036101000a031916815260200191505b50995050505050505050505060405180910390a150505050565b600160208181526000928352604092839020805481840180548651600296821615610100026000190190911695909504601f81018590048502860185019096528585529094919392909190830182828015610c235780601f10610bf857610100808354040283529160200191610c23565b820191906000526020600020905b815481529060010190602001808311610c0657829003601f168201915b50505060028085018054604080516020601f6000196101006001871615020190941695909504928301859004850281018501909152818152959695945090925090830182828015610cb55780601f10610c8a57610100808354040283529160200191610cb5565b820191906000526020600020905b815481529060010190602001808311610c9857829003601f168201915b5050505060038301805460408051602060026001851615610100026000190190941693909304601f8101849004840282018401909252818152949594935090830182828015610d455780601f10610d1a57610100808354040283529160200191610d45565b820191906000526020600020905b815481529060010190602001808311610d2857829003601f168201915b5050505060048301805460408051602060026001851615610100026000190190941693909304601f8101849004840282018401909252818152949594935090830182828015610dd55780601f10610daa57610100808354040283529160200191610dd5565b820191906000526020600020905b815481529060010190602001808311610db857829003601f168201915b5050505050905085565b828054600181600116156101000203166002900490600052602060002090601f016020900481019282601f10610e2057805160ff1916838001178555610e4d565b82800160010185558215610e4d579182015b82811115610e4d578251825591602001919060010190610e32565b50610e59929150610e5d565b5090565b610e7791905b80821115610e595760008155600101610e63565b9056fea165627a7a72305820a841687a4ec087939ba3885d718030f216a1ad9f35abd9e222c441218e0c2c780029",
  "source": "pragma solidity ^0.5.0;\r\n\r\ncontract AidLedger {\r\n  uint public reliefGoodCount = 0;\r\n  mapping(uint => ReliefGood) public reliefGoods;\r\n\r\n  event ReliefGoodCreated(\r\n    uint id,\r\n    string donor,\r\n    string description,\r\n    string status,\r\n    string recipient\r\n  );\r\n\r\n  struct ReliefGood {\r\n    uint id;\r\n    string donor;\r\n    string description;\r\n    string status;\r\n    string recipient;\r\n  }\r\n\r\n  constructor() public {\r\n    createReliefGood(\"Migs\", \"Hotdog\", \"In transit\", \"Clarence\");\r\n    createReliefGood(\"Kyle\", \"Egg\", \"In transit\", \"Ced\");\r\n    createReliefGood(\"Ced\", \"Hotdog\", \"Delivered\", \"Migs\");\r\n  }\r\n\r\n  // Create a new relief good\r\n  function createReliefGood(string memory _donor, string memory _description, string memory _status, string memory _recipient) public {\r\n    reliefGoodCount++;\r\n    reliefGoods[reliefGoodCount] = ReliefGood(reliefGoodCount, _donor, _description, _status, _recipient);\r\n    emit ReliefGoodCreated(reliefGoodCount, _donor, _description, _status, _recipient);\r\n  }\r\n\r\n  // Update relief good status\r\n  function updateReliefGoodstatus(uint _id, string memory _status) public {\r\n    reliefGoods[_id].status = _status;\r\n  }\r\n\r\n  // Get relief good details\r\n  function getReliefGood(uint _id) public view returns (uint, string memory, string memory, string memory) {\r\n    return (reliefGoods[_id].id, reliefGoods[_id].donor, reliefGoods[_id].description, reliefGoods[_id].status);\r\n  }\r\n}",
  "sourcePath": "D:/DEV/Projects/aidledger/blockchain/contracts/AidLedger.sol",
  "compiler": {
    "name": "solc",
    "version": "0.5.0+commit.1d4f565a.Emscripten.clang"
  },
  "schemaVersion": "3.0.1",
  "updatedAt": "2024-05-30T03:56:49.208Z",
  "devdoc": {
    "methods": {}
  },
  "userdoc": {
    "methods": {}
  }
}